{
  "contractName": "Bid",
  "abi": [
    {
      "constant": true,
      "inputs": [
        {
          "name": "",
          "type": "uint256"
        }
      ],
      "name": "owners",
      "outputs": [
        {
          "name": "",
          "type": "address"
        }
      ],
      "payable": false,
      "stateMutability": "view",
      "type": "function"
    },
    {
      "constant": true,
      "inputs": [
        {
          "name": "id",
          "type": "uint256"
        }
      ],
      "name": "getListing",
      "outputs": [
        {
          "name": "seller",
          "type": "address"
        },
        {
          "name": "title",
          "type": "string"
        },
        {
          "name": "link",
          "type": "string"
        },
        {
          "name": "maxPrice",
          "type": "uint256"
        },
        {
          "name": "minBidStep",
          "type": "uint256"
        },
        {
          "name": "startTime",
          "type": "uint256"
        },
        {
          "name": "endTime",
          "type": "uint256"
        },
        {
          "name": "winner",
          "type": "address"
        }
      ],
      "payable": false,
      "stateMutability": "view",
      "type": "function"
    },
    {
      "constant": true,
      "inputs": [],
      "name": "getBalance",
      "outputs": [
        {
          "name": "balance",
          "type": "uint256"
        }
      ],
      "payable": false,
      "stateMutability": "view",
      "type": "function"
    },
    {
      "constant": false,
      "inputs": [
        {
          "name": "amount",
          "type": "uint256"
        }
      ],
      "name": "withdraw",
      "outputs": [],
      "payable": true,
      "stateMutability": "payable",
      "type": "function"
    },
    {
      "constant": false,
      "inputs": [
        {
          "name": "_title",
          "type": "string"
        },
        {
          "name": "_link",
          "type": "string"
        },
        {
          "name": "_startPrice",
          "type": "uint256"
        },
        {
          "name": "_minBidStep",
          "type": "uint256"
        }
      ],
      "name": "createAListing",
      "outputs": [
        {
          "name": "id",
          "type": "uint256"
        }
      ],
      "payable": true,
      "stateMutability": "payable",
      "type": "function"
    },
    {
      "constant": false,
      "inputs": [
        {
          "name": "newOwner",
          "type": "address"
        }
      ],
      "name": "addOwner",
      "outputs": [],
      "payable": false,
      "stateMutability": "nonpayable",
      "type": "function"
    },
    {
      "constant": false,
      "inputs": [
        {
          "name": "listingId",
          "type": "uint256"
        },
        {
          "name": "callPrice",
          "type": "uint256"
        }
      ],
      "name": "bidAListing",
      "outputs": [
        {
          "name": "success",
          "type": "bool"
        }
      ],
      "payable": true,
      "stateMutability": "payable",
      "type": "function"
    },
    {
      "constant": true,
      "inputs": [],
      "name": "currListingId",
      "outputs": [
        {
          "name": "",
          "type": "uint256"
        }
      ],
      "payable": false,
      "stateMutability": "view",
      "type": "function"
    },
    {
      "constant": false,
      "inputs": [
        {
          "name": "id",
          "type": "uint256"
        }
      ],
      "name": "endListing",
      "outputs": [],
      "payable": true,
      "stateMutability": "payable",
      "type": "function"
    },
    {
      "inputs": [],
      "payable": false,
      "stateMutability": "nonpayable",
      "type": "constructor"
    },
    {
      "payable": true,
      "stateMutability": "payable",
      "type": "fallback"
    }
  ],
  "bytecode": "0x6060604052600060035561012c6004556064600555341561001f57600080fd5b600280548060010182816100339190610087565b9160005260206000209001600033909190916101000a81548173ffffffffffffffffffffffffffffffffffffffff021916908373ffffffffffffffffffffffffffffffffffffffff160217905550506100d8565b8154818355818115116100ae578183600052602060002091820191016100ad91906100b3565b5b505050565b6100d591905b808211156100d15760008160009055506001016100b9565b5090565b90565b611353806100e76000396000f300606060405260043610610099576000357c0100000000000000000000000000000000000000000000000000000000900463ffffffff168063025e7c271461009b578063107a274a146100fe57806312065fe0146102885780632e1a7d4d146102b1578063421b9588146102c95780637065cb48146103845780637d8e7909146103bd5780638844d7e5146103f6578063fac2e3d81461041f575b005b34156100a657600080fd5b6100bc6004808035906020019091905050610437565b604051808273ffffffffffffffffffffffffffffffffffffffff1673ffffffffffffffffffffffffffffffffffffffff16815260200191505060405180910390f35b341561010957600080fd5b61011f6004808035906020019091905050610476565b604051808973ffffffffffffffffffffffffffffffffffffffff1673ffffffffffffffffffffffffffffffffffffffff16815260200180602001806020018881526020018781526020018681526020018581526020018473ffffffffffffffffffffffffffffffffffffffff1673ffffffffffffffffffffffffffffffffffffffff16815260200183810383528a818151815260200191508051906020019080838360005b838110156101df5780820151818401526020810190506101c4565b50505050905090810190601f16801561020c5780820380516001836020036101000a031916815260200191505b50838103825289818151815260200191508051906020019080838360005b8381101561024557808201518184015260208101905061022a565b50505050905090810190601f1680156102725780820380516001836020036101000a031916815260200191505b509a505050505050505050505060405180910390f35b341561029357600080fd5b61029b6107b6565b6040518082815260200191505060405180910390f35b6102c760048080359060200190919050506107d5565b005b61036e600480803590602001908201803590602001908080601f0160208091040260200160405190810160405280939291908181526020018383808284378201915050505050509190803590602001908201803590602001908080601f016020809104026020016040519081016040528093929190818152602001838380828437820191505050505050919080359060200190919080359060200190919050506108f0565b6040518082815260200191505060405180910390f35b341561038f57600080fd5b6103bb600480803573ffffffffffffffffffffffffffffffffffffffff16906020019091905050610b30565b005b6103dc6004808035906020019091908035906020019091905050610cfb565b604051808215151515815260200191505060405180910390f35b341561040157600080fd5b610409610e88565b6040518082815260200191505060405180910390f35b6104356004808035906020019091905050610e8e565b005b60028181548110151561044657fe5b90600052602060002090016000915054906101000a900473ffffffffffffffffffffffffffffffffffffffff1681565b60006104806110bb565b6104886110bb565b60008060008060006104986110cf565b600160008b815260200190815260200160002061014060405190810160405290816000820160009054906101000a900473ffffffffffffffffffffffffffffffffffffffff1673ffffffffffffffffffffffffffffffffffffffff1673ffffffffffffffffffffffffffffffffffffffff16815260200160018201548152602001600282018054600181600116156101000203166002900480601f0160208091040260200160405190810160405280929190818152602001828054600181600116156101000203166002900480156105b15780601f10610586576101008083540402835291602001916105b1565b820191906000526020600020905b81548152906001019060200180831161059457829003601f168201915b505050505081526020016003820180548060200260200160405190810160405280929190818152602001828054801561063f57602002820191906000526020600020905b8160009054906101000a900473ffffffffffffffffffffffffffffffffffffffff1673ffffffffffffffffffffffffffffffffffffffff16815260200190600101908083116105f5575b50505050508152602001600582018054600181600116156101000203166002900480601f0160208091040260200160405190810160405280929190818152602001828054600181600116156101000203166002900480156106e15780601f106106b6576101008083540402835291602001916106e1565b820191906000526020600020905b8154815290600101906020018083116106c457829003601f168201915b505050505081526020016006820160009054906101000a900473ffffffffffffffffffffffffffffffffffffffff1673ffffffffffffffffffffffffffffffffffffffff1673ffffffffffffffffffffffffffffffffffffffff168152602001600782015481526020016008820154815260200160098201548152602001600a8201548152505090508060000151816040015182608001518360e001518460c001518561010001518661012001518760a001518696508595509850985098509850985098509850985050919395975091939597565b60003073ffffffffffffffffffffffffffffffffffffffff1631905090565b60008060009150600090505b600280549050811015610872576002818154811015156107fd57fe5b906000526020600020900160009054906101000a900473ffffffffffffffffffffffffffffffffffffffff1673ffffffffffffffffffffffffffffffffffffffff163373ffffffffffffffffffffffffffffffffffffffff1614156108655760019150610872565b80806001019150506107e1565b6001151582151514151561088557600080fd5b3073ffffffffffffffffffffffffffffffffffffffff163183111515156108ab57600080fd5b3373ffffffffffffffffffffffffffffffffffffffff166108fc849081150290604051600060405180830381858888f1935050505015156108eb57600080fd5b505050565b60006108fa6110cf565b6005543414151561090a57600080fd5b3073ffffffffffffffffffffffffffffffffffffffff166108fc349081150290604051600060405180830381858888f19350505050151561094a57600080fd5b610140604051908101604052803373ffffffffffffffffffffffffffffffffffffffff168152602001600354815260200187815260200160006040518059106109905750595b90808252806020026020018201604052508152602001868152602001600073ffffffffffffffffffffffffffffffffffffffff168152602001848152602001858152602001428152602001600081525090508060016000600354815260200190815260200160002060008201518160000160006101000a81548173ffffffffffffffffffffffffffffffffffffffff021916908373ffffffffffffffffffffffffffffffffffffffff160217905550602082015181600101556040820151816002019080519060200190610a65929190611161565b506060820151816003019080519060200190610a829291906111e1565b506080820151816005019080519060200190610a9f929190611161565b5060a08201518160060160006101000a81548173ffffffffffffffffffffffffffffffffffffffff021916908373ffffffffffffffffffffffffffffffffffffffff16021790555060c0820151816007015560e08201518160080155610100820151816009015561012082015181600a01559050506003600081548092919060010191905055915050949350505050565b60008060008060009150600090505b600280549050811015610bd057600281815481101515610b5b57fe5b906000526020600020900160009054906101000a900473ffffffffffffffffffffffffffffffffffffffff1673ffffffffffffffffffffffffffffffffffffffff163373ffffffffffffffffffffffffffffffffffffffff161415610bc35760019150610bd0565b8080600101915050610b3f565b60011515821515141515610be357600080fd5b60009350600092505b600280549050831015610c7d57600283815481101515610c0857fe5b906000526020600020900160009054906101000a900473ffffffffffffffffffffffffffffffffffffffff1673ffffffffffffffffffffffffffffffffffffffff168573ffffffffffffffffffffffffffffffffffffffff161415610c705760019350610c7d565b8280600101935050610bec565b6001151584151514151515610c9157600080fd5b60028054806001018281610ca5919061126b565b9160005260206000209001600087909190916101000a81548173ffffffffffffffffffffffffffffffffffffffff021916908373ffffffffffffffffffffffffffffffffffffffff160217905550505050505050565b600080600080600060016000888152602001908152602001600020935034925083600701548460080154018610151515610d3457600080fd5b3391508360040160008373ffffffffffffffffffffffffffffffffffffffff1673ffffffffffffffffffffffffffffffffffffffff1681526020019081526020016000209050600081600101541415610ded57836003018054806001018281610d9d919061126b565b9160005260206000209001600084909190916101000a81548173ffffffffffffffffffffffffffffffffffffffff021916908373ffffffffffffffffffffffffffffffffffffffff160217905550505b828160000154870311151515610e0257600080fd5b80600001548603925085846008018190555085816000018190555080600101600081548092919060010191905055504281600201819055503073ffffffffffffffffffffffffffffffffffffffff166108fc849081150290604051600060405180830381858888f193505050501515610e7a57600080fd5b600194505050505092915050565b60035481565b60008060006001600085815260200190815260200160002092506000836009015414158015610ec15750600083600a0154145b1515610ecc57600080fd5b4283600a0181905550600091505b8260030180549050821015611062578260040160008460030184815481101515610f0057fe5b906000526020600020900160009054906101000a900473ffffffffffffffffffffffffffffffffffffffff1673ffffffffffffffffffffffffffffffffffffffff1673ffffffffffffffffffffffffffffffffffffffff16815260200190815260200160002090506000816001015414151515610f7c57600080fd5b826008015481600001541415611010578260030182815481101515610f9d57fe5b906000526020600020900160009054906101000a900473ffffffffffffffffffffffffffffffffffffffff168360060160006101000a81548173ffffffffffffffffffffffffffffffffffffffff021916908373ffffffffffffffffffffffffffffffffffffffff160217905550611055565b3373ffffffffffffffffffffffffffffffffffffffff166108fc82600001549081150290604051600060405180830381858888f19350505050151561105457600080fd5b5b8180600101925050610eda565b3373ffffffffffffffffffffffffffffffffffffffff166108fc6064604686600801540281151561108f57fe5b049081150290604051600060405180830381858888f1935050505015156110b557600080fd5b50505050565b602060405190810160405280600081525090565b61014060405190810160405280600073ffffffffffffffffffffffffffffffffffffffff16815260200160008152602001611108611297565b81526020016111156112ab565b8152602001611122611297565b8152602001600073ffffffffffffffffffffffffffffffffffffffff168152602001600081526020016000815260200160008152602001600081525090565b828054600181600116156101000203166002900490600052602060002090601f016020900481019282601f106111a257805160ff19168380011785556111d0565b828001600101855582156111d0579182015b828111156111cf5782518255916020019190600101906111b4565b5b5090506111dd91906112bf565b5090565b82805482825590600052602060002090810192821561125a579160200282015b828111156112595782518260006101000a81548173ffffffffffffffffffffffffffffffffffffffff021916908373ffffffffffffffffffffffffffffffffffffffff16021790555091602001919060010190611201565b5b50905061126791906112e4565b5090565b8154818355818115116112925781836000526020600020918201910161129191906112bf565b5b505050565b602060405190810160405280600081525090565b602060405190810160405280600081525090565b6112e191905b808211156112dd5760008160009055506001016112c5565b5090565b90565b61132491905b8082111561132057600081816101000a81549073ffffffffffffffffffffffffffffffffffffffff0219169055506001016112ea565b5090565b905600a165627a7a72305820ae1fe71b98dd04ca817c9d2e809dd7ff23d58bde16cd06ea825e102d347c6f180029",
  "source": "pragma solidity ^0.4.15;\n\ncontract Bid {\n  // A listing for an item listed by the seller\n  struct Listing {\n    address seller;\t// address of the seller\n    uint id;\t\t// listing id\n    string title;\t// listing title\n\n    address[] addrs;\n    mapping(address => BidItem) bids;\n    string link;\n    address winner;\n\n    uint minBidStep;\t// the minimum increment value of the price\n    uint maxPrice;\t// max price up till now\n\n    uint startTime;\n    uint endTime;\n  }\n\n  address[] addrs;\n  \n  // A bid item of a specific user for a listing\n  struct BidItem {\n    uint price;\t\t// bid price (in wei)\n    uint count;\t\t// the number of time this user bids on this item\n    uint lastBidTime;\t// the most recent time this user makes the bid\n  }\n\n  mapping(uint => Listing) listings;\t// list of listings\n\n  address[] public owners;\t// owner of this contract\n  uint public currListingId = 0;\n\n  // configuration\n  uint waitTime = 300;\t// 5 minutes \n  uint listingFee = 100;\t// 0.01 Ether\n\n  // Constructor. \n  // Init the contract with default configuration.\n  // The contract owner may change the configuration later.\n  function Bid() public {\n    owners.push(msg.sender);\n  }\n\n  modifier onlyOwner() {\n    bool found = false;\n    for (uint i = 0; i < owners.length; i++) {\n      if (msg.sender == owners[i]) {\n\tfound = true;\n\tbreak;\n      }\n    }\n    require(found == true);\n    _;\n  }\n\n  function addOwner(address newOwner) public onlyOwner {\n    bool found = false;\n    for (uint i = 0; i < owners.length; i++) {\n      if (newOwner == owners[i]) {\n        found = true;\n        break;\n      }\n    }\n    require(found != true);\n    owners.push(newOwner);\n  }\n\n  function withdraw(uint amount) public payable onlyOwner {\n    require(amount <= this.balance);\n    msg.sender.transfer(amount);\n  }\n\n  // A Seller calls this method to create a new listing.\n  // He must pay the listing fee immediately.\n  function createAListing(string _title, string _link, uint _startPrice, uint _minBidStep) payable public returns (uint id) {\n    // the value paid must be equal the listing fee\n    require(msg.value == listingFee);\n    this.transfer(msg.value);\n\n    // create a new listing\n    Listing memory listing = Listing({\n      seller: msg.sender,\n      title: _title,\n      link: _link,\n      addrs: new address[](0),\n      maxPrice: _startPrice,\n      minBidStep: _minBidStep,\n      startTime: now,\n      endTime: 0,\n      id: currListingId,\n      winner: 0x0\n    });\n\n    listings[currListingId] = listing;\n    return currListingId++;\n  }\n\n  // Return a specific listing\n  function getListing(uint id) public constant returns (address seller, string title, string link, \n\t\t\t\t\t\t\tuint maxPrice, uint minBidStep, uint startTime, uint endTime, address winner) {\n    Listing memory listing = listings[id];\n    return (listing.seller, listing.title, listing.link, listing.maxPrice, listing.minBidStep, listing.startTime, listing.endTime, listing.winner);\n  }\n\n  // A Buyer calls this method to bid a listing.\n  // For simplicity, the system just remembers the value the bidder bids.\n  // The winner pays when the listing ends. If the winner doesn't pay within one day, the listing is reset and becomes active again.\n  function bidAListing(uint listingId, uint callPrice) payable public returns (bool success) {\n    var listing = listings[listingId];\n    var value = msg.value;\n    require(callPrice >= listing.maxPrice + listing.minBidStep);\n\n    // update listing\n    address sender = msg.sender;\n    var bid = listing.bids[sender];\n    if (bid.count == 0) {\n    \tlisting.addrs.push(sender);\n    }\n    require(callPrice - bid.price <= value);\n    value = callPrice - bid.price;\t// only get enough\n\n    listing.maxPrice = callPrice;\n\n    bid.price = callPrice;\n    bid.count++;\n    bid.lastBidTime = now;\n    this.transfer(value);\t// transfer the value.\n    return true;\n  }\n\n  // End a listing.\n  // Announce the winner and the maxPrice.\n  // The winnter pays the full price.\n  // Others get their money back.\n  // Seller gets 70% of the bid price.\n  // 30% belongs to the contract.\n  function endListing(uint id) public payable {\n    var listing = listings[id];\n    require(listing.startTime != 0 && listing.endTime == 0);\t// listing exists and hasn't ended yet.\n\n    listing.endTime = now;\n\n    // finding the winner\n    for (uint i = 0; i < listing.addrs.length; i++) {\n      var bid = listing.bids[listing.addrs[i]];\n      require(bid.count != 0);\n      if (bid.price == listing.maxPrice) {\n\tlisting.winner = listing.addrs[i];\n      } else {\n      \t// payback\n\tmsg.sender.transfer(bid.price);\n      }\n    }\n\n    // payback to seller\n    msg.sender.transfer(listing.maxPrice * 70 / 100);\n  }\n\n  function getBalance() public constant returns (uint balance) {\n    return this.balance;\n  }\n\n  function() public payable {\n    \n  }\n}\n",
  "sourcePath": "/Users/hieun/eproj/bidsys/contracts/Bid.sol",
  "compiler": {
    "name": "solc",
    "version": "0.4.18+commit.9cf6e910.Emscripten.clang"
  },
  "schemaVersion": "1.0.1",
  "updatedAt": "2018-02-08T06:42:01.927Z"
}