{
  "contractName": "Bid",
  "abi": [
    {
      "constant": true,
      "inputs": [
        {
          "name": "id",
          "type": "uint256"
        }
      ],
      "name": "getListing",
      "outputs": [
        {
          "name": "seller",
          "type": "address"
        },
        {
          "name": "title",
          "type": "string"
        },
        {
          "name": "link",
          "type": "string"
        },
        {
          "name": "minBidStep",
          "type": "uint256"
        },
        {
          "name": "state",
          "type": "uint256"
        },
        {
          "name": "startTime",
          "type": "uint256"
        },
        {
          "name": "endTime",
          "type": "uint256"
        }
      ],
      "payable": false,
      "stateMutability": "view",
      "type": "function"
    },
    {
      "constant": false,
      "inputs": [
        {
          "name": "_title",
          "type": "string"
        },
        {
          "name": "_link",
          "type": "string"
        },
        {
          "name": "_minBidStep",
          "type": "uint256"
        }
      ],
      "name": "createAListing",
      "outputs": [
        {
          "name": "id",
          "type": "uint256"
        }
      ],
      "payable": false,
      "stateMutability": "nonpayable",
      "type": "function"
    },
    {
      "constant": true,
      "inputs": [],
      "name": "currListingId",
      "outputs": [
        {
          "name": "",
          "type": "uint256"
        }
      ],
      "payable": false,
      "stateMutability": "view",
      "type": "function"
    },
    {
      "constant": true,
      "inputs": [],
      "name": "owner",
      "outputs": [
        {
          "name": "",
          "type": "address"
        }
      ],
      "payable": false,
      "stateMutability": "view",
      "type": "function"
    },
    {
      "inputs": [],
      "payable": false,
      "stateMutability": "nonpayable",
      "type": "constructor"
    }
  ],
  "bytecode": "0x6060604052600060025561012c600355662386f26fc10000600455341561002557600080fd5b33600160006101000a81548173ffffffffffffffffffffffffffffffffffffffff021916908373ffffffffffffffffffffffffffffffffffffffff160217905550610880806100756000396000f300606060405260043610610062576000357c0100000000000000000000000000000000000000000000000000000000900463ffffffff168063107a274a146100675780636806e5ad146101be5780638844d7e51461027b5780638da5cb5b146102a4575b600080fd5b341561007257600080fd5b61008860048080359060200190919050506102f9565b604051808873ffffffffffffffffffffffffffffffffffffffff1673ffffffffffffffffffffffffffffffffffffffff1681526020018060200180602001878152602001868152602001858152602001848152602001838103835289818151815260200191508051906020019080838360005b838110156101165780820151818401526020810190506100fb565b50505050905090810190601f1680156101435780820380516001836020036101000a031916815260200191505b50838103825288818151815260200191508051906020019080838360005b8381101561017c578082015181840152602081019050610161565b50505050905090810190601f1680156101a95780820380516001836020036101000a031916815260200191505b50995050505050505050505060405180910390f35b34156101c957600080fd5b610265600480803590602001908201803590602001908080601f0160208091040260200160405190810160405280939291908181526020018383808284378201915050505050509190803590602001908201803590602001908080601f01602080910402602001604051908101604052809392919081815260200183838082843782019150505050505091908035906020019091905050610577565b6040518082815260200191505060405180910390f35b341561028657600080fd5b61028e6106e8565b6040518082815260200191505060405180910390f35b34156102af57600080fd5b6102b76106ee565b604051808273ffffffffffffffffffffffffffffffffffffffff1673ffffffffffffffffffffffffffffffffffffffff16815260200191505060405180910390f35b6000610303610714565b61030b610714565b600080600080610319610728565b6000808a815260200190815260200160002061010060405190810160405290816000820160009054906101000a900473ffffffffffffffffffffffffffffffffffffffff1673ffffffffffffffffffffffffffffffffffffffff1673ffffffffffffffffffffffffffffffffffffffff16815260200160018201548152602001600282018054600181600116156101000203166002900480601f0160208091040260200160405190810160405280929190818152602001828054600181600116156101000203166002900480156104315780601f1061040657610100808354040283529160200191610431565b820191906000526020600020905b81548152906001019060200180831161041457829003601f168201915b50505050508152602001600482018054600181600116156101000203166002900480601f0160208091040260200160405190810160405280929190818152602001828054600181600116156101000203166002900480156104d35780601f106104a8576101008083540402835291602001916104d3565b820191906000526020600020905b8154815290600101906020018083116104b657829003601f168201915b50505050508152602001600582015481526020016006820160009054906101000a900460ff16600181111561050457fe5b600181111561050f57fe5b815260200160078201548152602001600882015481525050905080600001518160400151826060015183608001518460a00151600181111561054d57fe5b8560c001518660e00151859550849450975097509750975097509750975050919395979092949650565b6000610581610728565b610100604051908101604052803373ffffffffffffffffffffffffffffffffffffffff1681526020016002548152602001868152602001858152602001848152602001600060018111156105d157fe5b81526020014281526020016000815250905080600080600254815260200190815260200160002060008201518160000160006101000a81548173ffffffffffffffffffffffffffffffffffffffff021916908373ffffffffffffffffffffffffffffffffffffffff16021790555060208201518160010155604082015181600201908051906020019061066592919061079b565b50606082015181600401908051906020019061068292919061079b565b506080820151816005015560a08201518160060160006101000a81548160ff021916908360018111156106b157fe5b021790555060c0820151816007015560e0820151816008015590505060026000815480929190600101919050559150509392505050565b60025481565b600160009054906101000a900473ffffffffffffffffffffffffffffffffffffffff1681565b602060405190810160405280600081525090565b61010060405190810160405280600073ffffffffffffffffffffffffffffffffffffffff1681526020016000815260200161076161081b565b815260200161076e61081b565b8152602001600081526020016000600181111561078757fe5b815260200160008152602001600081525090565b828054600181600116156101000203166002900490600052602060002090601f016020900481019282601f106107dc57805160ff191683800117855561080a565b8280016001018555821561080a579182015b828111156108095782518255916020019190600101906107ee565b5b509050610817919061082f565b5090565b602060405190810160405280600081525090565b61085191905b8082111561084d576000816000905550600101610835565b5090565b905600a165627a7a723058203231b7598f45a8ee4b12be241245ea9d21430252641b5ec648943cb34f537a1c0029",
  "source": "pragma solidity ^0.4.15;\n\ncontract Bid {\n  enum State {\n    Started, Ended\n  }\n\n  // A listing for an item listed by the seller\n  struct Listing {\n    address seller;\t// address of the seller\n    uint id;\t\t// listing id\n    string title;\t// listing title\n    mapping(address => BidItem) bids; // list of bids for this listing\n    string link;\n\n    uint minBidStep;\t// the minimum increment value of the price\n    State state;\t\t// state could be either Started or Ended\n\n    uint startTime;\n    uint endTime;\n  }\n  \n  // A bid item of a specific user for a listing\n  struct BidItem {\n    uint price;\t\t// bid price (in wei)\n    uint count;\t\t// the number of time this user bids on this item\n    uint lastBidTime;\t// the most recent time this user makes the bid\n  }\n\n  mapping(uint => Listing) listings;\t// list of listings\n\n  address public owner;\t// owner of this contract\n  uint public currListingId = 0;\n\n  // configuration\n  uint waitTime = 300;\t// 5 minutes \n  uint listingFee = 10000000000000000;\t// 0.01 Ether\n\n  // Constructor. \n  // Init the contract with default configuration.\n  // The contract owner may change the configuration later.\n  function Bid() public {\n    owner = msg.sender;\n  }\n\n  modifier onlyOwner() {\n    require(msg.sender == owner);\n    _;\n  }\n\n  // A Seller calls this method to create a new listing.\n  // He must pay the listing fee immediately.\n  function createAListing(string _title, string _link, uint _minBidStep) public returns (uint id) {\n    // the value paid must be equal the listing fee\n    //require(msg.value == listingFee);\n\n    // create a new listing\n    Listing memory listing = Listing({\n      seller: msg.sender,\n      title: _title,\n      link: _link,\n      minBidStep: _minBidStep,\n      state: State.Started,\n      startTime: now,\n      endTime: 0,\n      id: currListingId\n    });\n\n    listings[currListingId] = listing;\n    return currListingId++;\n  }\n\n  // Return a specific listing\n  function getListing(uint id) public constant returns (address seller, string title, string link, uint minBidStep, uint state, uint startTime, uint endTime) {\n    Listing memory listing = listings[id];\n    return (listing.seller, listing.title, listing.link, listing.minBidStep, uint(listing.state), listing.startTime, listing.endTime);\n  }\n\n  // A Buyer calls this method to bid a listing.\n  // For simplicity, the system just remembers the value the bidder bids.\n  // The winner pays when the listing ends. If the winner doesn't pay within one day, the listing is reset and becomes active again.\n//  function bidAListing(uint listingId, uint price) payable public {\n//    var listing = listings[listingId];\n//  }\n}\n",
  "sourcePath": "/Users/hieun/eproj/bidsys/contracts/Bid.sol",
  "compiler": {
    "name": "solc",
    "version": "0.4.18+commit.9cf6e910.Emscripten.clang"
  },
  "schemaVersion": "1.0.1",
  "updatedAt": "2018-02-08T03:10:31.348Z"
}